:100000000C942A000C9447000C9447000C94470071
:100010000C9447000C9447000C9447000C94470044
:100020000C9447000C9447000C9411050C943A056D
:100030000C9447000C9447000C9447000C94470024
:100040000C9447000C9447000C9447000C94470014
:100050000C94470011241FBECFE5D8E0DEBFCDBF12
:1000600010E0A0E6B0E0E2E7FEE002C005900D92ED
:10007000A43AB107D9F710E0A4EAB0E001C01D929C
:10008000AA3AB107E1F70E946C050C9437070C946B
:100090000000843409F471C0853448F4823499F145
:1000A000833408F04DC0813409F083C00FC082361C
:1000B00051F1833620F4813609F07BC007C08336C6
:1000C00009F43EC0843609F074C057C0413069F469
:1000D0002AB381E090E0AC0102C0440F551F6A953D
:1000E000E2F7BA01622B6ABB08952AB381E090E07F
:1000F000AC0102C0440F551F6A95E2F7BA01609542
:1001000062236ABB0895413069F427B381E090E02F
:10011000AC0102C0440F551F6A95E2F7BA01622B89
:1001200067BB089527B381E090E0AC0102C0440FA3
:10013000551F6A95E2F7BA016095622367BB08957F
:10014000413069F424B381E090E0AC0102C0440F77
:10015000551F6A95E2F7BA01622B64BB089524B378
:1001600081E090E0AC0102C0440F551F6A95E2F7B0
:10017000BA016095622364BB0895413069F421B3EC
:1001800081E090E0AC0102C0440F551F6A95E2F790
:10019000BA01622B61BB089521B381E090E0AC010C
:1001A00002C0440F551F6A95E2F7BA0160956223B9
:1001B00061BB0895843409F471C0853448F48234F5
:1001C00099F1833408F04DC0813409F083C00FC029
:1001D000823651F1833620F4813609F07BC007C0A6
:1001E000833609F43EC0843609F074C057C04130EC
:1001F00069F42BB381E090E0AC0102C0440F551FBD
:100200006A95E2F7BA01622B6BBB08952BB381E0CC
:1002100090E0AC0102C0440F551F6A95E2F7BA01A5
:10022000609562236BBB0895413069F428B381E087
:1002300090E0AC0102C0440F551F6A95E2F7BA0185
:10024000622B68BB089528B381E090E0AC0102C046
:10025000440F551F6A95E2F7BA016095622368BBA7
:100260000895413069F425B381E090E0AC0102C00B
:10027000440F551F6A95E2F7BA01622B65BB0895DA
:1002800025B381E090E0AC0102C0440F551F6A9590
:10029000E2F7BA016095622365BB0895413069F4C5
:1002A00022B381E090E0AC0102C0440F551F6A9573
:1002B000E2F7BA01622B62BB089522B381E090E0BD
:1002C000AC0102C0440F551F6A95E2F7BA01609570
:1002D000622362BB0895843409F43DC0853440F440
:1002E0008234F9F0833450F5813409F040C00CC0F9
:1002F0008236B9F0833618F48136C9F505C08336E5
:10030000E9F08436A1F527C02BB381E090E0AC0181
:1003100002C0440F551F6A95E2F7BA0162276BBB12
:10032000089528B381E090E0AC0102C0440F551F4E
:100330006A95E2F7BA01622768BB089525B381E0A8
:1003400090E0AC0102C0440F551F6A95E2F7BA0174
:10035000622765BB089522B381E090E0AC0102C042
:10036000440F551F6A95E2F7BA01622762BB0895F0
:100370008434B1F1853438F48234E1F0833428F5E3
:100380008134C1F50CC08236A9F0833618F4813669
:1003900089F505C08336C9F0843661F521C029B3DB
:1003A00030E0C90102C0959587956A95E2F7982FCC
:1003B000917020C026B330E0C90102C095958795A1
:1003C0006A95E2F7982F917015C023B330E0C90108
:1003D00002C0959587956A95E2F7982F91700AC0AB
:1003E00020B330E0C90102C0959587956A95E2F780
:1003F000982F9170892F08958434D9F0853438F47A
:10040000823499F0833498F48134A1F40CC082369C
:1004100061F0833618F4813669F405C0833639F00B
:10042000843641F406C06ABB089567BB089564BB77
:10043000089561BB08958434D9F0853438F482344A
:1004400099F0833498F48134A1F40CC0823661F0C1
:10045000833618F4813669F405C0833639F0843662
:1004600041F406C06BBB089568BB089565BB089551
:1004700062BB0895843409F1853438F48234A9F0DC
:100480008334B8F48134E1F40CC0823671F08336E1
:1004900018F48136A9F405C0833659F0843681F406
:1004A0000CC08BB380958BBB089588B3809588BBB7
:1004B000089585B3809585BB089582B3809582BBEE
:1004C00008958434D9F0853438F4823499F0833433
:1004D00098F48134A1F40CC0823661F0833618F4AC
:1004E000813669F405C0833639F0843641F406C09C
:1004F00099B305C096B303C093B301C090B3892FDD
:100500000895843409F471C0853448F4823499F133
:10051000833408F04DC0813409F083C00FC08236A7
:1005200051F1833620F4813609F07BC007C0833651
:1005300009F43EC0843609F074C057C0413069F4F4
:100540002BB381E090E0AC0102C0440F551F6A95C7
:10055000E2F7BA01622B6BBB08952BB381E090E008
:10056000AC0102C0440F551F6A95E2F7BA016095CD
:1005700062236BBB0895413069F428B381E090E0B9
:10058000AC0102C0440F551F6A95E2F7BA01622B15
:1005900068BB089528B381E090E0AC0102C0440F2D
:1005A000551F6A95E2F7BA016095622368BB08950A
:1005B000413069F425B381E090E0AC0102C0440F02
:1005C000551F6A95E2F7BA01622B65BB089525B302
:1005D00081E090E0AC0102C0440F551F6A95E2F73C
:1005E000BA016095622365BB0895413069F422B376
:1005F00081E090E0AC0102C0440F551F6A95E2F71C
:10060000BA01622B62BB089522B381E090E0AC0195
:1006100002C0440F551F6A95E2F7BA016095622344
:1006200062BB08958FB780688FBF08958FB78F77AB
:100630008FBF089582E466E041E00E94DA008FE90E
:100640009FE00197F1F700C0000082E466E040E01F
:100650000E94DA008FE99FE00197F1F700C00000E7
:100660000895CF93C82F482F42954F70417082E470
:1006700060E00E94DA004C2F429546954770417029
:1006800082E461E00E94DA004C2F4295469546953F
:100690004370417082E462E00E94DA004C2F441FF4
:1006A0004427441F82E463E00E94DA0082E464E0AD
:1006B00040E00E94DA000E941A034C2F417082E44D
:1006C00060E00E94DA004C2F4695417082E461E0C0
:1006D0000E94DA004C2F46954695417082E462E014
:1006E0000E94DA00C695C695C6954C2F417082E4EB
:1006F00063E00E94DA0082E464E040E00E94DA00F5
:100700000E941A03CF9108958FE799EAA3E08150E0
:100710009040A040E1F700C0000082E460E041E0CA
:100720000E94490082E461E041E00E94490082E4C5
:1007300062E041E00E94490082E463E041E00E94FF
:10074000490082E464E041E00E94490082E465E0FF
:1007500041E00E94490082E466E041E00E944900D5
:1007600082E465E040E00E94DA0082E00E9431030A
:10077000AFE1BEE41197F1F700C0000088E20E94EB
:1007800031038FEC97E00197F1F700C000008CE097
:100790000E943103AFECB7E01197F1F700C0000001
:1007A00081E00E9431038FE19EE40197F1F700C0E0
:1007B000000086E00E943103AFECB7E01197F1F73B
:1007C00000C000000895CF93C82F482F42954F7066
:1007D000417082E460E00E94DA004C2F4295469519
:1007E0004770417082E461E00E94DA004C2F42952C
:1007F000469546954370417082E462E00E94DA00BB
:100800004C2F441F4427441F82E463E00E94DA0017
:1008100082E464E041E00E94DA000E941A034C2F57
:10082000417082E460E00E94DA004C2F46954170EE
:1008300082E461E00E94DA004C2F469546954170B3
:1008400082E462E00E94DA00C695C695C6954C2FF8
:10085000417082E463E00E94DA0082E464E041E0F7
:100860000E94DA000E941A03CF91089581E00E944D
:1008700031030895833080F4613180F4662381F080
:10088000882381F0813019F4962F91580CC0823062
:1008900051F4962F915407C090E805C090E803C02A
:1008A00090E801C090E8892F0E9431030895CF930A
:1008B000DF93EC018881882331F021960E94E303C5
:1008C00089918823D9F7DF91CF9108951F93CF9312
:1008D000DF93CDB7DEB728970FB6F894DEBF0FBE13
:1008E000CDBF8A30910518F0009729F42DC0805DA6
:1008F0000E94E30329C010E02AE030E0E12FFF2747
:10090000E7FDF09541E050E04C0F5D1FE40FF51F4F
:10091000B9010E9417078083862F972F1F5F0097CA
:1009200069F711168CF41150E12FFF27E7FDF095C0
:1009300081E090E08C0F9D1FE80FF91F8081805DA2
:100940000E94E303112379F728960FB6F894DEBFCF
:100950000FBECDBFDF91CF911F91089541E00E945E
:100960004900089541E00E94DA00089540E00E94A5
:10097000DA0008950E946B0108950E94B80108955D
:100980006FEF0E94FC010895CF93DF93CDB7DEB7E0
:100990002A970FB6F894DEBF0FBECDBFDE011196C9
:1009A000E0E6F0E09AE001900D929150E1F7FE014F
:1009B000E60FF11D61810E941B022A960FB6F89482
:1009C000DEBF0FBECDBFDF91CF91089541E00E9401
:1009D00049000895413021F440E00E94DA00089572
:1009E000442319F441E00E94DA0008959093A7008F
:1009F0008093A60008959093A5008093A400089585
:100A000083B7886083BF8FE48CBF83B7816083BF67
:100A100083B7846083BF0E94120389B7826089BF55
:100A200008951F920F920FB60F9211242F933F93A8
:100A30004F935F936F937F938F939F93AF93BF93E6
:100A4000EF93FF93E091A400F091A500309709F097
:100A50000995FF91EF91BF91AF919F918F917F91F8
:100A60006F915F914F913F912F910F900FBE0F901B
:100A70001F9018951F920F920FB60F9211242F936B
:100A80003F934F935F936F937F938F939F93AF9316
:100A9000BF93EF93FF93E091A600F091A7003097EA
:100AA00009F00995FF91EF91BF91AF919F918F91BF
:100AB0007F916F915F914F913F912F910F900FBE5A
:100AC0000F901F90189581E08093A8008091A90055
:100AD0008F5F8093A90008950E94000584E460E080
:100AE0000E94AE0484E461E00E94AE0484E462E00B
:100AF0000E94AE040E94840383E40E94C00481E447
:100B000060E00E94E60481E461E00E94E60483E67E
:100B100095E00E94FB0482E061E00E943A048AE6CC
:100B200090E00E94570406E710E0CAE0D3E10F2EE0
:100B3000F3E8EF2EF0E0FF2EF02D0F2EF9E0BF2EA0
:100B4000F02D0F2EF2E9CF2EF0E0DF2EF02D84E411
:100B500061E00E94B60484E462E00E94B60484E48A
:100B600060E00E94B20481E063E00E943A04C801A0
:100B70000E94570482E06CE00E943A048091A10038
:100B8000992787FD90950E94660480E20E94E30306
:100B90004DC081E461E040E00E94EA0481E460E04D
:100BA00041E00E94EA048091A1006C2F0E940A0794
:100BB00083E4692F0E94C4048091A8008823E1F394
:100BC0001092A80081E460E040E00E94EA0481E421
:100BD00061E041E00E94EA048091A1006C2F0E9434
:100BE0000A07682F83E40E94C4048091A800882328
:100BF000E1F31092A8008091A9008436B8F0109219
:100C0000A9008091A10081508093A10082E06CE056
:100C10000E943A048091A100882344F0992787FD1F
:100C200090950E94660480E20E94E3038091A100F7
:100C300088230CF0AECFD093A10084E460E00E9442
:100C4000B60484E462E00E94B60484E461E00E9499
:100C5000B20481E063E00E943A04C7010E94570495
:100C600082E06CE00E943A048091A000992787FD01
:100C700090950E94660480E20E94E3034DC081E4E7
:100C800061E040E00E94EA0481E460E041E00E940B
:100C9000EA048091A0006C2F0E940A0783E4692F68
:100CA0000E94C4048091A8008823E1F31092A80058
:100CB00081E460E040E00E94EA0481E461E041E018
:100CC0000E94EA048091A0006C2F0E940A07682FFE
:100CD00083E40E94C4048091A8008823E1F3109269
:100CE000A8008091A9008436B8F01092A9008091E4
:100CF000A00081508093A00082E06CE00E943A0442
:100D00008091A000882344F0992787FD90950E9448
:100D1000660480E20E94E3038091A00088230CF027
:100D2000AECFB092A00084E460E00E94B60484E4F8
:100D300061E00E94B60484E462E00E94B20481E0B3
:100D400063E00E943A04C6010E94570482E06CE00E
:100D50000E943A048091A200992787FD90950E94F5
:100D6000660480E20E94E3034DC081E461E040E05C
:100D70000E94EA0481E460E041E00E94EA0480917C
:100D8000A2006C2F0E940A0783E4692F0E94C4040A
:100D90008091A8008823E1F31092A80081E460E02C
:100DA00040E00E94EA0481E461E041E00E94EA043C
:100DB0008091A2006C2F0E940A07682F83E40E9492
:100DC000C4048091A8008823E1F31092A8008091C8
:100DD000A9008436B8F01092A9008091A200815039
:100DE0008093A20082E06CE00E943A048091A2000D
:100DF000882344F0992787FD90950E94660480E23D
:100E00000E94E3038091A20088230CF0AECFD09320
:100E1000A2009DCE87FB082E062687FD819567FDE3
:100E2000619519D00EF4919507FC81950895AA1B40
:100E3000BB1B51E107C0AA1FBB1FA617B70710F0C5
:100E4000A61BB70B881F991F5A95A9F780959095F7
:100E5000BC01CD010895991B79E004C0991F961734
:100E600008F0961B881F7A95C9F780950895F89425
:020E7000FFCFB2
:100E72003F065B4F666D7D077F6F54696D65204C41
:100E82006566743A200020524544204C69676874B4
:100E920020200059454C4C4F57204C6967687420FC
:100EA2002000475245454E204C6967687420200057
:040EB200091313000D
:00000001FF
